{
  "_format": "hh-sol-artifact-1",
  "contractName": "AaveProxy",
  "sourceName": "contracts/Proxy.sol",
  "abi": [
    {
      "inputs": [
        {
          "internalType": "address",
          "name": "_aaveLendingPool",
          "type": "address"
        },
        {
          "internalType": "address",
          "name": "_owner",
          "type": "address"
        }
      ],
      "stateMutability": "nonpayable",
      "type": "constructor"
    },
    {
      "inputs": [
        {
          "internalType": "address",
          "name": "owner",
          "type": "address"
        }
      ],
      "name": "OwnableInvalidOwner",
      "type": "error"
    },
    {
      "inputs": [
        {
          "internalType": "address",
          "name": "account",
          "type": "address"
        }
      ],
      "name": "OwnableUnauthorizedAccount",
      "type": "error"
    },
    {
      "anonymous": false,
      "inputs": [
        {
          "indexed": true,
          "internalType": "address",
          "name": "previousOwner",
          "type": "address"
        },
        {
          "indexed": true,
          "internalType": "address",
          "name": "newOwner",
          "type": "address"
        }
      ],
      "name": "OwnershipTransferred",
      "type": "event"
    },
    {
      "inputs": [],
      "name": "aaveLendingPool",
      "outputs": [
        {
          "internalType": "address",
          "name": "",
          "type": "address"
        }
      ],
      "stateMutability": "view",
      "type": "function"
    },
    {
      "inputs": [
        {
          "internalType": "address",
          "name": "asset",
          "type": "address"
        },
        {
          "internalType": "uint256",
          "name": "amount",
          "type": "uint256"
        },
        {
          "internalType": "uint256",
          "name": "interestRateMode",
          "type": "uint256"
        }
      ],
      "name": "borrow",
      "outputs": [],
      "stateMutability": "nonpayable",
      "type": "function"
    },
    {
      "inputs": [
        {
          "internalType": "address",
          "name": "asset",
          "type": "address"
        },
        {
          "internalType": "uint256",
          "name": "amount",
          "type": "uint256"
        }
      ],
      "name": "deposit",
      "outputs": [],
      "stateMutability": "nonpayable",
      "type": "function"
    },
    {
      "inputs": [],
      "name": "owner",
      "outputs": [
        {
          "internalType": "address",
          "name": "",
          "type": "address"
        }
      ],
      "stateMutability": "view",
      "type": "function"
    },
    {
      "inputs": [],
      "name": "renounceOwnership",
      "outputs": [],
      "stateMutability": "nonpayable",
      "type": "function"
    },
    {
      "inputs": [
        {
          "internalType": "address",
          "name": "asset",
          "type": "address"
        },
        {
          "internalType": "uint256",
          "name": "amount",
          "type": "uint256"
        },
        {
          "internalType": "uint256",
          "name": "interestRateMode",
          "type": "uint256"
        }
      ],
      "name": "repay",
      "outputs": [],
      "stateMutability": "nonpayable",
      "type": "function"
    },
    {
      "inputs": [
        {
          "internalType": "address",
          "name": "newOwner",
          "type": "address"
        }
      ],
      "name": "transferOwnership",
      "outputs": [],
      "stateMutability": "nonpayable",
      "type": "function"
    }
  ],
  "bytecode": "0x60a060405234801561001057600080fd5b506040516111c33803806111c383398181016040528101906100329190610286565b80600073ffffffffffffffffffffffffffffffffffffffff168173ffffffffffffffffffffffffffffffffffffffff16036100a55760006040517f1e4fbdf700000000000000000000000000000000000000000000000000000000815260040161009c91906102d5565b60405180910390fd5b6100b48161015f60201b60201c565b50600073ffffffffffffffffffffffffffffffffffffffff168273ffffffffffffffffffffffffffffffffffffffff1603610124576040517f08c379a000000000000000000000000000000000000000000000000000000000815260040161011b9061034d565b60405180910390fd5b8173ffffffffffffffffffffffffffffffffffffffff1660808173ffffffffffffffffffffffffffffffffffffffff1681525050505061036d565b60008060009054906101000a900473ffffffffffffffffffffffffffffffffffffffff169050816000806101000a81548173ffffffffffffffffffffffffffffffffffffffff021916908373ffffffffffffffffffffffffffffffffffffffff1602179055508173ffffffffffffffffffffffffffffffffffffffff168173ffffffffffffffffffffffffffffffffffffffff167f8be0079c531659141344cd1fd0a4f28419497f9722a3daafe3b4186f6b6457e060405160405180910390a35050565b600080fd5b600073ffffffffffffffffffffffffffffffffffffffff82169050919050565b600061025382610228565b9050919050565b61026381610248565b811461026e57600080fd5b50565b6000815190506102808161025a565b92915050565b6000806040838503121561029d5761029c610223565b5b60006102ab85828601610271565b92505060206102bc85828601610271565b9150509250929050565b6102cf81610248565b82525050565b60006020820190506102ea60008301846102c6565b92915050565b600082825260208201905092915050565b7f496e76616c6964204161766520706f6f6c206164647265737300000000000000600082015250565b60006103376019836102f0565b915061034282610301565b602082019050919050565b600060208201905081810360008301526103668161032a565b9050919050565b608051610e186103ab6000396000818161021a0152818161029d01528181610427015281816104aa015281816105be01526106570152610e186000f3fe608060405234801561001057600080fd5b506004361061007d5760003560e01c80638da5cb5b1161005b5780638da5cb5b146100c4578063c1bce0b7146100e2578063e9d337b8146100fe578063f2fde38b1461011c5761007d565b806347e7ef2414610082578063715018a61461009e5780638cd2e0c7146100a8575b600080fd5b61009c600480360381019061009791906108eb565b610138565b005b6100a6610331565b005b6100c260048036038101906100bd919061092b565b610345565b005b6100cc610550565b6040516100d9919061098d565b60405180910390f35b6100fc60048036038101906100f7919061092b565b610579565b005b610106610655565b604051610113919061098d565b60405180910390f35b610136600480360381019061013191906109a8565b610679565b005b6000811161017b576040517f08c379a000000000000000000000000000000000000000000000000000000000815260040161017290610a58565b60405180910390fd5b8173ffffffffffffffffffffffffffffffffffffffff166323b872dd3330846040518463ffffffff1660e01b81526004016101b893929190610a87565b6020604051808303816000875af11580156101d7573d6000803e3d6000fd5b505050506040513d601f19601f820116820180604052508101906101fb9190610af6565b508173ffffffffffffffffffffffffffffffffffffffff1663095ea7b37f0000000000000000000000000000000000000000000000000000000000000000836040518363ffffffff1660e01b8152600401610257929190610b23565b6020604051808303816000875af1158015610276573d6000803e3d6000fd5b505050506040513d601f19601f8201168201806040525081019061029a9190610af6565b507f000000000000000000000000000000000000000000000000000000000000000073ffffffffffffffffffffffffffffffffffffffff1663617ba03783833360006040518563ffffffff1660e01b81526004016102fb9493929190610b9f565b600060405180830381600087803b15801561031557600080fd5b505af1158015610329573d6000803e3d6000fd5b505050505050565b6103396106ff565b6103436000610786565b565b60008211610388576040517f08c379a000000000000000000000000000000000000000000000000000000000815260040161037f90610c56565b60405180910390fd5b8273ffffffffffffffffffffffffffffffffffffffff166323b872dd3330856040518463ffffffff1660e01b81526004016103c593929190610a87565b6020604051808303816000875af11580156103e4573d6000803e3d6000fd5b505050506040513d601f19601f820116820180604052508101906104089190610af6565b508273ffffffffffffffffffffffffffffffffffffffff1663095ea7b37f0000000000000000000000000000000000000000000000000000000000000000846040518363ffffffff1660e01b8152600401610464929190610b23565b6020604051808303816000875af1158015610483573d6000803e3d6000fd5b505050506040513d601f19601f820116820180604052508101906104a79190610af6565b507f000000000000000000000000000000000000000000000000000000000000000073ffffffffffffffffffffffffffffffffffffffff1663573ade81848484336040518563ffffffff1660e01b81526004016105079493929190610c76565b6020604051808303816000875af1158015610526573d6000803e3d6000fd5b505050506040513d601f19601f8201168201806040525081019061054a9190610cd0565b50505050565b60008060009054906101000a900473ffffffffffffffffffffffffffffffffffffffff16905090565b600082116105bc576040517f08c379a00000000000000000000000000000000000000000000000000000000081526004016105b390610d6f565b60405180910390fd5b7f000000000000000000000000000000000000000000000000000000000000000073ffffffffffffffffffffffffffffffffffffffff1663a415bcad8484846000336040518663ffffffff1660e01b815260040161061e959493929190610d8f565b600060405180830381600087803b15801561063857600080fd5b505af115801561064c573d6000803e3d6000fd5b50505050505050565b7f000000000000000000000000000000000000000000000000000000000000000081565b6106816106ff565b600073ffffffffffffffffffffffffffffffffffffffff168173ffffffffffffffffffffffffffffffffffffffff16036106f35760006040517f1e4fbdf70000000000000000000000000000000000000000000000000000000081526004016106ea919061098d565b60405180910390fd5b6106fc81610786565b50565b61070761084a565b73ffffffffffffffffffffffffffffffffffffffff16610725610550565b73ffffffffffffffffffffffffffffffffffffffff16146107845761074861084a565b6040517f118cdaa700000000000000000000000000000000000000000000000000000000815260040161077b919061098d565b60405180910390fd5b565b60008060009054906101000a900473ffffffffffffffffffffffffffffffffffffffff169050816000806101000a81548173ffffffffffffffffffffffffffffffffffffffff021916908373ffffffffffffffffffffffffffffffffffffffff1602179055508173ffffffffffffffffffffffffffffffffffffffff168173ffffffffffffffffffffffffffffffffffffffff167f8be0079c531659141344cd1fd0a4f28419497f9722a3daafe3b4186f6b6457e060405160405180910390a35050565b600033905090565b600080fd5b600073ffffffffffffffffffffffffffffffffffffffff82169050919050565b600061088282610857565b9050919050565b61089281610877565b811461089d57600080fd5b50565b6000813590506108af81610889565b92915050565b6000819050919050565b6108c8816108b5565b81146108d357600080fd5b50565b6000813590506108e5816108bf565b92915050565b6000806040838503121561090257610901610852565b5b6000610910858286016108a0565b9250506020610921858286016108d6565b9150509250929050565b60008060006060848603121561094457610943610852565b5b6000610952868287016108a0565b9350506020610963868287016108d6565b9250506040610974868287016108d6565b9150509250925092565b61098781610877565b82525050565b60006020820190506109a2600083018461097e565b92915050565b6000602082840312156109be576109bd610852565b5b60006109cc848285016108a0565b91505092915050565b600082825260208201905092915050565b7f4465706f73697420616d6f756e74206d7573742062652067726561746572207460008201527f68616e207a65726f000000000000000000000000000000000000000000000000602082015250565b6000610a426028836109d5565b9150610a4d826109e6565b604082019050919050565b60006020820190508181036000830152610a7181610a35565b9050919050565b610a81816108b5565b82525050565b6000606082019050610a9c600083018661097e565b610aa9602083018561097e565b610ab66040830184610a78565b949350505050565b60008115159050919050565b610ad381610abe565b8114610ade57600080fd5b50565b600081519050610af081610aca565b92915050565b600060208284031215610b0c57610b0b610852565b5b6000610b1a84828501610ae1565b91505092915050565b6000604082019050610b38600083018561097e565b610b456020830184610a78565b9392505050565b6000819050919050565b600061ffff82169050919050565b6000819050919050565b6000610b89610b84610b7f84610b4c565b610b64565b610b56565b9050919050565b610b9981610b6e565b82525050565b6000608082019050610bb4600083018761097e565b610bc16020830186610a78565b610bce604083018561097e565b610bdb6060830184610b90565b95945050505050565b7f526570617920616d6f756e74206d75737420626520677265617465722074686160008201527f6e207a65726f0000000000000000000000000000000000000000000000000000602082015250565b6000610c406026836109d5565b9150610c4b82610be4565b604082019050919050565b60006020820190508181036000830152610c6f81610c33565b9050919050565b6000608082019050610c8b600083018761097e565b610c986020830186610a78565b610ca56040830185610a78565b610cb2606083018461097e565b95945050505050565b600081519050610cca816108bf565b92915050565b600060208284031215610ce657610ce5610852565b5b6000610cf484828501610cbb565b91505092915050565b7f426f72726f7720616d6f756e74206d757374206265206772656174657220746860008201527f616e207a65726f00000000000000000000000000000000000000000000000000602082015250565b6000610d596027836109d5565b9150610d6482610cfd565b604082019050919050565b60006020820190508181036000830152610d8881610d4c565b9050919050565b600060a082019050610da4600083018861097e565b610db16020830187610a78565b610dbe6040830186610a78565b610dcb6060830185610b90565b610dd8608083018461097e565b969550505050505056fea2646970667358221220c7608fc9a540f3601326f198e77fd6a016d5b3cc6fcd2d462b10adbef2c8807c64736f6c634300081c0033",
  "linkReferences": {},
  "deployedLinkReferences": {}
}